:1000000000308A007D290000201120088316870017
:10001000831207110C309700A01020088316870068
:10002000831287100C309D000030F80004389200D5
:10003000FF30831692008312A701A601A901A8012F
:10004000AA012708AC002608AB002C08033C0318C3
:100050002D280330AC00FF30AB00AA08031D442854
:100060002C08F9002B08F800F90CF80CF90CF80C26
:10007000F90C78089500F90C790C3039F70017085D
:10008000CF397704970057282C08F9002B08F8007F
:10009000F90CF80CF90CF80CF90C78089B00F90C29
:1000A000790C3039F7001D08CF3977049D000130F5
:1000B000AA002908AC002808AB002C08033C031850
:1000C00065280330AC00FF30AB00AA08031D7C2874
:1000D0002C08F9002B08F800F90CF80CF90CF80CB6
:1000E000F90C78089500F90C790C3039F7001708ED
:1000F000CF39770497008F282C08F9002B08F800D7
:10010000F90CF80CF90CF80CF90C78089B00F90CB8
:10011000790C3039F7001D08CF3977049D00003481
:100120002630840000080319A2280630F800F701E1
:10013000F70B9828F80B97287B30F700F70B9E28D1
:10014000800B952800340330AA02031CB1282A3002
:10015000840000080319B128AF2800000000800BBC
:10016000AD280034A508031DBF28A608031DBA2822
:100170000610BB28061483160610C7288312A6088B
:10018000031DC4280611C5280615831606118312FF
:100190000034250DF700F70DF70DF830F7051F08AF
:1001A000C73977049F001030F700F70BD5280000FF
:1001B0001F151F19D9281E08F80000342908F80156
:1001C00028020318E6282808F700F228F70108306B
:1001D000AA00A80DF70D290877020318F700F80DFB
:1001E000AA0BE928003478082608A8006430A90082
:1001F000DE207708A60078083030031D0629A71CEA
:100200000E29A7190E29271A20300929A71127120C
:100210002714F80778080C1E0B2999002608A80057
:100220000A30A900DE207708A60078083030031DC8
:100230001F29A7192429271C2429271A2030F80749
:1002400078080C1E212999003030A60726080C1EBC
:10025000272999008A110A12DD290330A500C92037
:100260007808A3002308240203184A29A21F43295F
:100270002208FE3C03184929FF3A031D432921089F
:10028000EC3C031849290130A1020030031C013065
:10029000A2025C29A21B5329A208031D5829210888
:1002A000813C031C58290130A1070318A20A5C29CC
:1002B000FF30A200EC30A10008158316081182302F
:1002C00083122107A5002208A6000318A60A260803
:1002D000A8002508A7000A30A9002908A903003AA8
:1002E000031976292708AA00A3206D29081183166F
:1002F000081183128A110A12192A84011F308305FA
:100300000A308316990026309800903083129800A6
:1003100083161F149F141F159F11FF308312A00016
:10032000A101A201A3011E30A400A5012518A42942
:1003300083161F109F101F119F1183121F179F17E5
:1003400083169F1383121F14A518A7290420C030F9
:100350008B040130A600902004200530A6009020D8
:100360000330A500A5080319C9290815831608112B
:1003700004308312A600E030AA00A320A60BBB29FC
:1003800008118316081102308312A6009020A503DD
:10039000B2290130A500A600B2200330A500C92073
:1003A0007808633C031CE6290330A500C9207808BF
:1003B000A500A6001B30A700F3280D300C1EDE2977
:1003C00099000A300C1EE2299900CD290130A500C0
:1003D000A601B220FA30A500A50803190E2A0814B8
:1003E0008316081001308312A60090200430A60066
:1003F000E030AA00A320A60BF829081083160810E5
:10040000831288148316881001308312A60090206E
:100410008810831688108312A503EC290230A600E9
:1004200090200230A500F930AA00A320A50B132AC2
:100430002D29A21B512AA208031D222A2108553C5E
:100440000318512A08148316081001308312A600DD
:1004500090206430AA00A32008108316081083128D
:1004600088148316881001308312A6009020023071
:10047000A5009530AA00A320A50B392A8810831661
:10048000881001308312A500A601B220A501013019
:10049000A600B2200130A1020030031C0130A202EC
:1004A000AF2AA21B5A2AA208031D8A2A2108313C1E
:1004B000031C8A2A08148316081001308312A60030
:1004C00090200230A500C730AA00A320A50B632A04
:1004D00008108316081083128814831688100130C0
:1004E0008312A60090200430A500C730AA00A320E4
:1004F000A50B752A88108316881001308312A50079
:10050000A600B220A501A601B2200130A107031860
:10051000A20AAF2A08148316081001308312A6001D
:1005200090200810831608108312881483168810F0
:1005300001308312A60090200430A500E030AA000C
:10054000A320A50B9E2A88108316881001308312E1
:10055000A500A600B220A5010130A600B2200E2AF7
:04056000B02A63005A
:02400E00FA3F77
:00000001FF
;PIC16F877
